{
  "_format": "hh-sol-artifact-1",
  "contractName": "TokenSale",
  "sourceName": "contracts/TokenSale.sol",
  "abi": [
    {
      "inputs": [
        {
          "internalType": "address",
          "name": "_KEEYAddress",
          "type": "address"
        },
        {
          "internalType": "address",
          "name": "_USDTAddress",
          "type": "address"
        }
      ],
      "stateMutability": "nonpayable",
      "type": "constructor"
    },
    {
      "anonymous": false,
      "inputs": [
        {
          "indexed": false,
          "internalType": "address",
          "name": "addr",
          "type": "address"
        },
        {
          "indexed": false,
          "internalType": "uint256",
          "name": "amount",
          "type": "uint256"
        }
      ],
      "name": "BuyKEEY",
      "type": "event"
    },
    {
      "anonymous": false,
      "inputs": [
        {
          "indexed": true,
          "internalType": "address",
          "name": "previousOwner",
          "type": "address"
        },
        {
          "indexed": true,
          "internalType": "address",
          "name": "newOwner",
          "type": "address"
        }
      ],
      "name": "OwnershipTransferred",
      "type": "event"
    },
    {
      "inputs": [],
      "name": "FIXED_BUY_PRICE",
      "outputs": [
        {
          "internalType": "uint256",
          "name": "",
          "type": "uint256"
        }
      ],
      "stateMutability": "view",
      "type": "function"
    },
    {
      "inputs": [],
      "name": "KEEY",
      "outputs": [
        {
          "internalType": "contract IERC20",
          "name": "",
          "type": "address"
        }
      ],
      "stateMutability": "view",
      "type": "function"
    },
    {
      "inputs": [],
      "name": "MAX_CAP",
      "outputs": [
        {
          "internalType": "uint256",
          "name": "",
          "type": "uint256"
        }
      ],
      "stateMutability": "view",
      "type": "function"
    },
    {
      "inputs": [],
      "name": "USDT",
      "outputs": [
        {
          "internalType": "contract IERC20",
          "name": "",
          "type": "address"
        }
      ],
      "stateMutability": "view",
      "type": "function"
    },
    {
      "inputs": [
        {
          "internalType": "address",
          "name": "newOwner",
          "type": "address"
        }
      ],
      "name": "_transferOwnership",
      "outputs": [],
      "stateMutability": "nonpayable",
      "type": "function"
    },
    {
      "inputs": [
        {
          "internalType": "uint256",
          "name": "USDTAmount",
          "type": "uint256"
        }
      ],
      "name": "buyKEEY",
      "outputs": [],
      "stateMutability": "payable",
      "type": "function"
    },
    {
      "inputs": [
        {
          "internalType": "uint256",
          "name": "_amount",
          "type": "uint256"
        }
      ],
      "name": "emergencyWithdrawKeey",
      "outputs": [],
      "stateMutability": "nonpayable",
      "type": "function"
    },
    {
      "inputs": [],
      "name": "getRemainingKEEYInPool",
      "outputs": [
        {
          "internalType": "uint256",
          "name": "",
          "type": "uint256"
        }
      ],
      "stateMutability": "view",
      "type": "function"
    },
    {
      "inputs": [
        {
          "internalType": "uint256",
          "name": "amount",
          "type": "uint256"
        }
      ],
      "name": "initializeSale",
      "outputs": [],
      "stateMutability": "nonpayable",
      "type": "function"
    },
    {
      "inputs": [],
      "name": "owner",
      "outputs": [
        {
          "internalType": "address",
          "name": "",
          "type": "address"
        }
      ],
      "stateMutability": "view",
      "type": "function"
    },
    {
      "inputs": [],
      "name": "totalBought",
      "outputs": [
        {
          "internalType": "uint256",
          "name": "",
          "type": "uint256"
        }
      ],
      "stateMutability": "view",
      "type": "function"
    },
    {
      "inputs": [
        {
          "internalType": "address",
          "name": "newOwner",
          "type": "address"
        }
      ],
      "name": "transferOwnership",
      "outputs": [],
      "stateMutability": "nonpayable",
      "type": "function"
    }
  ],
  "bytecode": "0x60806040523480156200001157600080fd5b50604051620017d6380380620017d6833981810160405281019062000037919062000158565b336000806101000a81548173ffffffffffffffffffffffffffffffffffffffff021916908373ffffffffffffffffffffffffffffffffffffffff16021790555081600160006101000a81548173ffffffffffffffffffffffffffffffffffffffff021916908373ffffffffffffffffffffffffffffffffffffffff16021790555080600260006101000a81548173ffffffffffffffffffffffffffffffffffffffff021916908373ffffffffffffffffffffffffffffffffffffffff160217905550336000806101000a81548173ffffffffffffffffffffffffffffffffffffffff021916908373ffffffffffffffffffffffffffffffffffffffff1602179055505050620001e7565b6000815190506200015281620001cd565b92915050565b600080604083850312156200016c57600080fd5b60006200017c8582860162000141565b92505060206200018f8582860162000141565b9150509250929050565b6000620001a682620001ad565b9050919050565b600073ffffffffffffffffffffffffffffffffffffffff82169050919050565b620001d88162000199565b8114620001e457600080fd5b50565b6115df80620001f76000396000f3fe6080604052600436106100a75760003560e01c80638ea9d347116100645780638ea9d3471461019b578063b657811b146101c6578063c54e44eb146101f1578063d29d44ee1461021c578063d669e1d414610245578063f2fde38b14610270576100a7565b806312d1ef8c146100ac5780632074c0f5146100c85780634a91f195146100f35780635347238a1461011e5780635bf35c22146101475780638da5cb5b14610170575b600080fd5b6100c660048036038101906100c19190610f24565b610299565b005b3480156100d457600080fd5b506100dd6105e1565b6040516100ea9190611119565b60405180910390f35b3480156100ff57600080fd5b50610108610607565b60405161011591906111f4565b60405180910390f35b34801561012a57600080fd5b5061014560048036038101906101409190610f24565b61060d565b005b34801561015357600080fd5b5061016e60048036038101906101699190610f24565b6107af565b005b34801561017c57600080fd5b50610185610b10565b6040516101929190611075565b60405180910390f35b3480156101a757600080fd5b506101b0610b39565b6040516101bd91906111f4565b60405180910390f35b3480156101d257600080fd5b506101db610b42565b6040516101e891906111f4565b60405180910390f35b3480156101fd57600080fd5b50610206610b6e565b6040516102139190611119565b60405180910390f35b34801561022857600080fd5b50610243600480360381019061023e9190610ed2565b610b94565b005b34801561025157600080fd5b5061025a610ce6565b60405161026791906111f4565b60405180910390f35b34801561027c57600080fd5b5061029760048036038101906102929190610ed2565b610cec565b005b80600260009054906101000a900473ffffffffffffffffffffffffffffffffffffffff1673ffffffffffffffffffffffffffffffffffffffff1663dd62ed3e33306040518363ffffffff1660e01b81526004016102f7929190611090565b60206040518083038186803b15801561030f57600080fd5b505afa158015610323573d6000803e3d6000fd5b505050506040513d601f19601f820116820180604052508101906103479190610f4d565b1015610388576040517f08c379a000000000000000000000000000000000000000000000000000000000815260040161037f90611174565b60405180910390fd5b61039181610df6565b6103d0576040517f08c379a00000000000000000000000000000000000000000000000000000000081526004016103c790611194565b60405180910390fd5b60006103db82610e12565b90506103e5610b42565b811115610427576040517f08c379a000000000000000000000000000000000000000000000000000000000815260040161041e906111d4565b60405180910390fd5b600260009054906101000a900473ffffffffffffffffffffffffffffffffffffffff1673ffffffffffffffffffffffffffffffffffffffff166323b872dd3330856040518463ffffffff1660e01b8152600401610486939291906110b9565b602060405180830381600087803b1580156104a057600080fd5b505af11580156104b4573d6000803e3d6000fd5b505050506040513d601f19601f820116820180604052508101906104d89190610efb565b50600160009054906101000a900473ffffffffffffffffffffffffffffffffffffffff1673ffffffffffffffffffffffffffffffffffffffff1663a9059cbb33836040518363ffffffff1660e01b81526004016105369291906110f0565b602060405180830381600087803b15801561055057600080fd5b505af1158015610564573d6000803e3d6000fd5b505050506040513d601f19601f820116820180604052508101906105889190610efb565b5061059e81600354610e2c90919063ffffffff16565b6003819055507fe6223babd11b7fab4df79cd17d60717b6bf90675839b8ea554a0a556e174859c33826040516105d59291906110f0565b60405180910390a15050565b600160009054906101000a900473ffffffffffffffffffffffffffffffffffffffff1681565b60035481565b600160009054906101000a900473ffffffffffffffffffffffffffffffffffffffff1673ffffffffffffffffffffffffffffffffffffffff166370a08231336040518263ffffffff1660e01b81526004016106689190611075565b60206040518083038186803b15801561068057600080fd5b505afa158015610694573d6000803e3d6000fd5b505050506040513d601f19601f820116820180604052508101906106b89190610f4d565b8111156106fa576040517f08c379a00000000000000000000000000000000000000000000000000000000081526004016106f190611154565b60405180910390fd5b600160009054906101000a900473ffffffffffffffffffffffffffffffffffffffff1673ffffffffffffffffffffffffffffffffffffffff166323b872dd3330846040518463ffffffff1660e01b8152600401610759939291906110b9565b602060405180830381600087803b15801561077357600080fd5b505af1158015610787573d6000803e3d6000fd5b505050506040513d601f19601f820116820180604052508101906107ab9190610efb565b5050565b60008054906101000a900473ffffffffffffffffffffffffffffffffffffffff1673ffffffffffffffffffffffffffffffffffffffff163373ffffffffffffffffffffffffffffffffffffffff161461083d576040517f08c379a0000000000000000000000000000000000000000000000000000000008152600401610834906111b4565b60405180910390fd5b80600160009054906101000a900473ffffffffffffffffffffffffffffffffffffffff1673ffffffffffffffffffffffffffffffffffffffff166370a08231306040518263ffffffff1660e01b81526004016108999190611075565b60206040518083038186803b1580156108b157600080fd5b505afa1580156108c5573d6000803e3d6000fd5b505050506040513d601f19601f820116820180604052508101906108e99190610f4d565b11156109ab57600160009054906101000a900473ffffffffffffffffffffffffffffffffffffffff1673ffffffffffffffffffffffffffffffffffffffff1663a9059cbb610935610b10565b836040518363ffffffff1660e01b81526004016109539291906110f0565b602060405180830381600087803b15801561096d57600080fd5b505af1158015610981573d6000803e3d6000fd5b505050506040513d601f19601f820116820180604052508101906109a59190610efb565b50610b0d565b600160009054906101000a900473ffffffffffffffffffffffffffffffffffffffff1673ffffffffffffffffffffffffffffffffffffffff1663a9059cbb6109f1610b10565b600160009054906101000a900473ffffffffffffffffffffffffffffffffffffffff1673ffffffffffffffffffffffffffffffffffffffff166370a08231306040518263ffffffff1660e01b8152600401610a4c9190611075565b60206040518083038186803b158015610a6457600080fd5b505afa158015610a78573d6000803e3d6000fd5b505050506040513d601f19601f82011682018060405250810190610a9c9190610f4d565b6040518363ffffffff1660e01b8152600401610ab99291906110f0565b602060405180830381600087803b158015610ad357600080fd5b505af1158015610ae7573d6000803e3d6000fd5b505050506040513d601f19601f82011682018060405250810190610b0b9190610efb565b505b50565b60008060009054906101000a900473ffffffffffffffffffffffffffffffffffffffff16905090565b6402540be40081565b60006003546109c410610b66576003546109c4610b5f91906112a7565b9050610b6b565b600090505b90565b600260009054906101000a900473ffffffffffffffffffffffffffffffffffffffff1681565b60008054906101000a900473ffffffffffffffffffffffffffffffffffffffff1673ffffffffffffffffffffffffffffffffffffffff163373ffffffffffffffffffffffffffffffffffffffff1614610c22576040517f08c379a0000000000000000000000000000000000000000000000000000000008152600401610c19906111b4565b60405180910390fd5b60008060009054906101000a900473ffffffffffffffffffffffffffffffffffffffff169050816000806101000a81548173ffffffffffffffffffffffffffffffffffffffff021916908373ffffffffffffffffffffffffffffffffffffffff1602179055508173ffffffffffffffffffffffffffffffffffffffff168173ffffffffffffffffffffffffffffffffffffffff167f8be0079c531659141344cd1fd0a4f28419497f9722a3daafe3b4186f6b6457e060405160405180910390a35050565b6109c481565b60008054906101000a900473ffffffffffffffffffffffffffffffffffffffff1673ffffffffffffffffffffffffffffffffffffffff163373ffffffffffffffffffffffffffffffffffffffff1614610d7a576040517f08c379a0000000000000000000000000000000000000000000000000000000008152600401610d71906111b4565b60405180910390fd5b600073ffffffffffffffffffffffffffffffffffffffff168173ffffffffffffffffffffffffffffffffffffffff161415610dea576040517f08c379a0000000000000000000000000000000000000000000000000000000008152600401610de190611134565b60405180910390fd5b610df381610b94565b50565b6000806402540be40083610e0a9190611347565b149050919050565b60006402540be40082610e259190611276565b9050919050565b6000808284610e3b9190611220565b905083811015610e74577f4e487b7100000000000000000000000000000000000000000000000000000000600052600160045260246000fd5b8091505092915050565b600081359050610e8d81611564565b92915050565b600081519050610ea28161157b565b92915050565b600081359050610eb781611592565b92915050565b600081519050610ecc81611592565b92915050565b600060208284031215610ee457600080fd5b6000610ef284828501610e7e565b91505092915050565b600060208284031215610f0d57600080fd5b6000610f1b84828501610e93565b91505092915050565b600060208284031215610f3657600080fd5b6000610f4484828501610ea8565b91505092915050565b600060208284031215610f5f57600080fd5b6000610f6d84828501610ebd565b91505092915050565b610f7f816112db565b82525050565b610f8e81611323565b82525050565b6000610fa160268361120f565b9150610fac826113d6565b604082019050919050565b6000610fc4601e8361120f565b9150610fcf82611425565b602082019050919050565b6000610fe760318361120f565b9150610ff28261144e565b604082019050919050565b600061100a602a8361120f565b91506110158261149d565b604082019050919050565b600061102d60208361120f565b9150611038826114ec565b602082019050919050565b600061105060218361120f565b915061105b82611515565b604082019050919050565b61106f81611319565b82525050565b600060208201905061108a6000830184610f76565b92915050565b60006040820190506110a56000830185610f76565b6110b26020830184610f76565b9392505050565b60006060820190506110ce6000830186610f76565b6110db6020830185610f76565b6110e86040830184611066565b949350505050565b60006040820190506111056000830185610f76565b6111126020830184611066565b9392505050565b600060208201905061112e6000830184610f85565b92915050565b6000602082019050818103600083015261114d81610f94565b9050919050565b6000602082019050818103600083015261116d81610fb7565b9050919050565b6000602082019050818103600083015261118d81610fda565b9050919050565b600060208201905081810360008301526111ad81610ffd565b9050919050565b600060208201905081810360008301526111cd81611020565b9050919050565b600060208201905081810360008301526111ed81611043565b9050919050565b60006020820190506112096000830184611066565b92915050565b600082825260208201905092915050565b600061122b82611319565b915061123683611319565b9250827fffffffffffffffffffffffffffffffffffffffffffffffffffffffffffffffff0382111561126b5761126a611378565b5b828201905092915050565b600061128182611319565b915061128c83611319565b92508261129c5761129b6113a7565b5b828204905092915050565b60006112b282611319565b91506112bd83611319565b9250828210156112d0576112cf611378565b5b828203905092915050565b60006112e6826112f9565b9050919050565b60008115159050919050565b600073ffffffffffffffffffffffffffffffffffffffff82169050919050565b6000819050919050565b600061132e82611335565b9050919050565b6000611340826112f9565b9050919050565b600061135282611319565b915061135d83611319565b92508261136d5761136c6113a7565b5b828206905092915050565b7f4e487b7100000000000000000000000000000000000000000000000000000000600052601160045260246000fd5b7f4e487b7100000000000000000000000000000000000000000000000000000000600052601260045260246000fd5b7f4f776e61626c653a206e6577206f776e657220697320746865207a65726f206160008201527f6464726573730000000000000000000000000000000000000000000000000000602082015250565b7f42616c616e6365206973206e6f7420656e6f75676820666f722066756e640000600082015250565b7f4e6f7420617070726f76656420656e6f75676820555344542062616c616e636560008201527f20666f722074686520636f6e7472616374000000000000000000000000000000602082015250565b7f496e70757420555344542076616c7565206973206e6f7420646976697369626c60008201527f6520627920707269636500000000000000000000000000000000000000000000602082015250565b7f4f776e61626c653a2063616c6c6572206973206e6f7420746865206f776e6572600082015250565b7f4578636565642074686520617661696c61626c65204b45455920616d6f756e7460008201527f2e00000000000000000000000000000000000000000000000000000000000000602082015250565b61156d816112db565b811461157857600080fd5b50565b611584816112ed565b811461158f57600080fd5b50565b61159b81611319565b81146115a657600080fd5b5056fea26469706673582212202b7a2e02d60e51cf656e828ce86a016326643e0ce918fda78d8680d426856c6264736f6c63430008030033",
  "linkReferences": {},
  "deployedLinkReferences": {}
}