{
  "_format": "hh-sol-artifact-1",
  "contractName": "Token",
  "sourceName": "contracts/Token.sol",
  "abi": [
    {
      "inputs": [
        {
          "internalType": "uint256",
          "name": "_amount",
          "type": "uint256"
        },
        {
          "internalType": "uint256",
          "name": "_decimals",
          "type": "uint256"
        },
        {
          "internalType": "string",
          "name": "_name",
          "type": "string"
        },
        {
          "internalType": "string",
          "name": "_symbol",
          "type": "string"
        }
      ],
      "stateMutability": "nonpayable",
      "type": "constructor"
    },
    {
      "anonymous": false,
      "inputs": [
        {
          "indexed": true,
          "internalType": "address",
          "name": "owner",
          "type": "address"
        },
        {
          "indexed": true,
          "internalType": "address",
          "name": "spender",
          "type": "address"
        },
        {
          "indexed": false,
          "internalType": "uint256",
          "name": "value",
          "type": "uint256"
        }
      ],
      "name": "Approval",
      "type": "event"
    },
    {
      "anonymous": false,
      "inputs": [
        {
          "indexed": true,
          "internalType": "address",
          "name": "previousOwner",
          "type": "address"
        },
        {
          "indexed": true,
          "internalType": "address",
          "name": "newOwner",
          "type": "address"
        }
      ],
      "name": "OwnershipTransferred",
      "type": "event"
    },
    {
      "anonymous": false,
      "inputs": [
        {
          "indexed": true,
          "internalType": "address",
          "name": "from",
          "type": "address"
        },
        {
          "indexed": true,
          "internalType": "address",
          "name": "to",
          "type": "address"
        },
        {
          "indexed": false,
          "internalType": "uint256",
          "name": "value",
          "type": "uint256"
        }
      ],
      "name": "Transfer",
      "type": "event"
    },
    {
      "inputs": [
        {
          "internalType": "address",
          "name": "newOwner",
          "type": "address"
        }
      ],
      "name": "_transferOwnership",
      "outputs": [],
      "stateMutability": "nonpayable",
      "type": "function"
    },
    {
      "inputs": [
        {
          "internalType": "address",
          "name": "owner",
          "type": "address"
        },
        {
          "internalType": "address",
          "name": "delegate",
          "type": "address"
        }
      ],
      "name": "allowance",
      "outputs": [
        {
          "internalType": "uint256",
          "name": "",
          "type": "uint256"
        }
      ],
      "stateMutability": "view",
      "type": "function"
    },
    {
      "inputs": [],
      "name": "amount",
      "outputs": [
        {
          "internalType": "uint256",
          "name": "",
          "type": "uint256"
        }
      ],
      "stateMutability": "view",
      "type": "function"
    },
    {
      "inputs": [
        {
          "internalType": "address",
          "name": "delegate",
          "type": "address"
        },
        {
          "internalType": "uint256",
          "name": "numTokens",
          "type": "uint256"
        }
      ],
      "name": "approve",
      "outputs": [
        {
          "internalType": "bool",
          "name": "",
          "type": "bool"
        }
      ],
      "stateMutability": "nonpayable",
      "type": "function"
    },
    {
      "inputs": [
        {
          "internalType": "address",
          "name": "tokenOwner",
          "type": "address"
        }
      ],
      "name": "balanceOf",
      "outputs": [
        {
          "internalType": "uint256",
          "name": "",
          "type": "uint256"
        }
      ],
      "stateMutability": "view",
      "type": "function"
    },
    {
      "inputs": [],
      "name": "decimals",
      "outputs": [
        {
          "internalType": "uint256",
          "name": "",
          "type": "uint256"
        }
      ],
      "stateMutability": "view",
      "type": "function"
    },
    {
      "inputs": [],
      "name": "name",
      "outputs": [
        {
          "internalType": "string",
          "name": "",
          "type": "string"
        }
      ],
      "stateMutability": "view",
      "type": "function"
    },
    {
      "inputs": [],
      "name": "owner",
      "outputs": [
        {
          "internalType": "address",
          "name": "",
          "type": "address"
        }
      ],
      "stateMutability": "view",
      "type": "function"
    },
    {
      "inputs": [],
      "name": "symbol",
      "outputs": [
        {
          "internalType": "string",
          "name": "",
          "type": "string"
        }
      ],
      "stateMutability": "view",
      "type": "function"
    },
    {
      "inputs": [],
      "name": "totalSupply",
      "outputs": [
        {
          "internalType": "uint256",
          "name": "",
          "type": "uint256"
        }
      ],
      "stateMutability": "view",
      "type": "function"
    },
    {
      "inputs": [
        {
          "internalType": "address",
          "name": "receiver",
          "type": "address"
        },
        {
          "internalType": "uint256",
          "name": "numTokens",
          "type": "uint256"
        }
      ],
      "name": "transfer",
      "outputs": [
        {
          "internalType": "bool",
          "name": "",
          "type": "bool"
        }
      ],
      "stateMutability": "nonpayable",
      "type": "function"
    },
    {
      "inputs": [
        {
          "internalType": "address",
          "name": "owner",
          "type": "address"
        },
        {
          "internalType": "address",
          "name": "buyer",
          "type": "address"
        },
        {
          "internalType": "uint256",
          "name": "numTokens",
          "type": "uint256"
        }
      ],
      "name": "transferFrom",
      "outputs": [
        {
          "internalType": "bool",
          "name": "",
          "type": "bool"
        }
      ],
      "stateMutability": "nonpayable",
      "type": "function"
    },
    {
      "inputs": [
        {
          "internalType": "address",
          "name": "newOwner",
          "type": "address"
        }
      ],
      "name": "transferOwnership",
      "outputs": [],
      "stateMutability": "nonpayable",
      "type": "function"
    }
  ],
  "bytecode": "0x60806040523480156200001157600080fd5b506040516200194c3803806200194c833981810160405281019062000037919062000280565b336000806101000a81548173ffffffffffffffffffffffffffffffffffffffff021916908373ffffffffffffffffffffffffffffffffffffffff16021790555081600190805190602001906200008f92919062000147565b508060029080519060200190620000a892919062000147565b508360048190555082600381905550600454600560003373ffffffffffffffffffffffffffffffffffffffff1673ffffffffffffffffffffffffffffffffffffffff16815260200190815260200160002081905550336000806101000a81548173ffffffffffffffffffffffffffffffffffffffff021916908373ffffffffffffffffffffffffffffffffffffffff16021790555050505050620004b2565b8280546200015590620003bd565b90600052602060002090601f016020900481019282620001795760008555620001c5565b82601f106200019457805160ff1916838001178555620001c5565b82800160010185558215620001c5579182015b82811115620001c4578251825591602001919060010190620001a7565b5b509050620001d49190620001d8565b5090565b5b80821115620001f3576000816000905550600101620001d9565b5090565b60006200020e620002088462000347565b6200031e565b9050828152602081018484840111156200022757600080fd5b6200023484828562000387565b509392505050565b600082601f8301126200024e57600080fd5b815162000260848260208601620001f7565b91505092915050565b6000815190506200027a8162000498565b92915050565b600080600080608085870312156200029757600080fd5b6000620002a78782880162000269565b9450506020620002ba8782880162000269565b935050604085015167ffffffffffffffff811115620002d857600080fd5b620002e6878288016200023c565b925050606085015167ffffffffffffffff8111156200030457600080fd5b62000312878288016200023c565b91505092959194509250565b60006200032a6200033d565b9050620003388282620003f3565b919050565b6000604051905090565b600067ffffffffffffffff82111562000365576200036462000458565b5b620003708262000487565b9050602081019050919050565b6000819050919050565b60005b83811015620003a75780820151818401526020810190506200038a565b83811115620003b7576000848401525b50505050565b60006002820490506001821680620003d657607f821691505b60208210811415620003ed57620003ec62000429565b5b50919050565b620003fe8262000487565b810181811067ffffffffffffffff8211171562000420576200041f62000458565b5b80604052505050565b7f4e487b7100000000000000000000000000000000000000000000000000000000600052602260045260246000fd5b7f4e487b7100000000000000000000000000000000000000000000000000000000600052604160045260246000fd5b6000601f19601f8301169050919050565b620004a3816200037d565b8114620004af57600080fd5b50565b61148a80620004c26000396000f3fe608060405234801561001057600080fd5b50600436106100cf5760003560e01c80638da5cb5b1161008c578063aa8c217c11610066578063aa8c217c1461022a578063d29d44ee14610248578063dd62ed3e14610264578063f2fde38b14610294576100cf565b80638da5cb5b146101be57806395d89b41146101dc578063a9059cbb146101fa576100cf565b806306fdde03146100d4578063095ea7b3146100f257806318160ddd1461012257806323b872dd14610140578063313ce5671461017057806370a082311461018e575b600080fd5b6100dc6102b0565b6040516100e991906110dd565b60405180910390f35b61010c60048036038101906101079190610f79565b61033e565b60405161011991906110c2565b60405180910390f35b61012a610430565b604051610137919061117f565b60405180910390f35b61015a60048036038101906101559190610f2a565b61043a565b60405161016791906110c2565b60405180910390f35b610178610826565b604051610185919061117f565b60405180910390f35b6101a860048036038101906101a39190610ec5565b61082c565b6040516101b5919061117f565b60405180910390f35b6101c6610875565b6040516101d391906110a7565b60405180910390f35b6101e461089e565b6040516101f191906110dd565b60405180910390f35b610214600480360381019061020f9190610f79565b61092c565b60405161022191906110c2565b60405180910390f35b610232610b13565b60405161023f919061117f565b60405180910390f35b610262600480360381019061025d9190610ec5565b610b19565b005b61027e60048036038101906102799190610eee565b610c6b565b60405161028b919061117f565b60405180910390f35b6102ae60048036038101906102a99190610ec5565b610cf2565b005b600180546102bd906112bb565b80601f01602080910402602001604051908101604052809291908181526020018280546102e9906112bb565b80156103365780601f1061030b57610100808354040283529160200191610336565b820191906000526020600020905b81548152906001019060200180831161031957829003601f168201915b505050505081565b600081600660003373ffffffffffffffffffffffffffffffffffffffff1673ffffffffffffffffffffffffffffffffffffffff16815260200190815260200160002060008573ffffffffffffffffffffffffffffffffffffffff1673ffffffffffffffffffffffffffffffffffffffff168152602001908152602001600020819055508273ffffffffffffffffffffffffffffffffffffffff163373ffffffffffffffffffffffffffffffffffffffff167f8c5be1e5ebec7d5bd14f71427d1e84f3dd0314c0f7b2291e5b200ac8c7c3b9258460405161041e919061117f565b60405180910390a36001905092915050565b6000600454905090565b6000600560008573ffffffffffffffffffffffffffffffffffffffff1673ffffffffffffffffffffffffffffffffffffffff168152602001908152602001600020548211156104be576040517f08c379a00000000000000000000000000000000000000000000000000000000081526004016104b59061113f565b60405180910390fd5b600660008573ffffffffffffffffffffffffffffffffffffffff1673ffffffffffffffffffffffffffffffffffffffff16815260200190815260200160002060003373ffffffffffffffffffffffffffffffffffffffff1673ffffffffffffffffffffffffffffffffffffffff1681526020019081526020016000205482111561057d576040517f08c379a00000000000000000000000000000000000000000000000000000000081526004016105749061115f565b60405180910390fd5b6105cf82600560008773ffffffffffffffffffffffffffffffffffffffff1673ffffffffffffffffffffffffffffffffffffffff16815260200190815260200160002054610dfc90919063ffffffff16565b600560008673ffffffffffffffffffffffffffffffffffffffff1673ffffffffffffffffffffffffffffffffffffffff168152602001908152602001600020819055506106a182600660008773ffffffffffffffffffffffffffffffffffffffff1673ffffffffffffffffffffffffffffffffffffffff16815260200190815260200160002060003373ffffffffffffffffffffffffffffffffffffffff1673ffffffffffffffffffffffffffffffffffffffff16815260200190815260200160002054610dfc90919063ffffffff16565b600660008673ffffffffffffffffffffffffffffffffffffffff1673ffffffffffffffffffffffffffffffffffffffff16815260200190815260200160002060003373ffffffffffffffffffffffffffffffffffffffff1673ffffffffffffffffffffffffffffffffffffffff1681526020019081526020016000208190555061077382600560008673ffffffffffffffffffffffffffffffffffffffff1673ffffffffffffffffffffffffffffffffffffffff16815260200190815260200160002054610e4990919063ffffffff16565b600560008573ffffffffffffffffffffffffffffffffffffffff1673ffffffffffffffffffffffffffffffffffffffff168152602001908152602001600020819055508273ffffffffffffffffffffffffffffffffffffffff168473ffffffffffffffffffffffffffffffffffffffff167fddf252ad1be2c89b69c2b068fc378daa952ba7f163c4a11628f55a4df523b3ef84604051610813919061117f565b60405180910390a3600190509392505050565b60035481565b6000600560008373ffffffffffffffffffffffffffffffffffffffff1673ffffffffffffffffffffffffffffffffffffffff168152602001908152602001600020549050919050565b60008060009054906101000a900473ffffffffffffffffffffffffffffffffffffffff16905090565b600280546108ab906112bb565b80601f01602080910402602001604051908101604052809291908181526020018280546108d7906112bb565b80156109245780601f106108f957610100808354040283529160200191610924565b820191906000526020600020905b81548152906001019060200180831161090757829003601f168201915b505050505081565b6000600560003373ffffffffffffffffffffffffffffffffffffffff1673ffffffffffffffffffffffffffffffffffffffff1681526020019081526020016000205482111561097a57600080fd5b6109cc82600560003373ffffffffffffffffffffffffffffffffffffffff1673ffffffffffffffffffffffffffffffffffffffff16815260200190815260200160002054610dfc90919063ffffffff16565b600560003373ffffffffffffffffffffffffffffffffffffffff1673ffffffffffffffffffffffffffffffffffffffff16815260200190815260200160002081905550610a6182600560008673ffffffffffffffffffffffffffffffffffffffff1673ffffffffffffffffffffffffffffffffffffffff16815260200190815260200160002054610e4990919063ffffffff16565b600560008573ffffffffffffffffffffffffffffffffffffffff1673ffffffffffffffffffffffffffffffffffffffff168152602001908152602001600020819055508273ffffffffffffffffffffffffffffffffffffffff163373ffffffffffffffffffffffffffffffffffffffff167fddf252ad1be2c89b69c2b068fc378daa952ba7f163c4a11628f55a4df523b3ef84604051610b01919061117f565b60405180910390a36001905092915050565b60045481565b60008054906101000a900473ffffffffffffffffffffffffffffffffffffffff1673ffffffffffffffffffffffffffffffffffffffff163373ffffffffffffffffffffffffffffffffffffffff1614610ba7576040517f08c379a0000000000000000000000000000000000000000000000000000000008152600401610b9e9061111f565b60405180910390fd5b60008060009054906101000a900473ffffffffffffffffffffffffffffffffffffffff169050816000806101000a81548173ffffffffffffffffffffffffffffffffffffffff021916908373ffffffffffffffffffffffffffffffffffffffff1602179055508173ffffffffffffffffffffffffffffffffffffffff168173ffffffffffffffffffffffffffffffffffffffff167f8be0079c531659141344cd1fd0a4f28419497f9722a3daafe3b4186f6b6457e060405160405180910390a35050565b6000600660008473ffffffffffffffffffffffffffffffffffffffff1673ffffffffffffffffffffffffffffffffffffffff16815260200190815260200160002060008373ffffffffffffffffffffffffffffffffffffffff1673ffffffffffffffffffffffffffffffffffffffff16815260200190815260200160002054905092915050565b60008054906101000a900473ffffffffffffffffffffffffffffffffffffffff1673ffffffffffffffffffffffffffffffffffffffff163373ffffffffffffffffffffffffffffffffffffffff1614610d80576040517f08c379a0000000000000000000000000000000000000000000000000000000008152600401610d779061111f565b60405180910390fd5b600073ffffffffffffffffffffffffffffffffffffffff168173ffffffffffffffffffffffffffffffffffffffff161415610df0576040517f08c379a0000000000000000000000000000000000000000000000000000000008152600401610de7906110ff565b60405180910390fd5b610df981610b19565b50565b600082821115610e35577f4e487b7100000000000000000000000000000000000000000000000000000000600052600160045260246000fd5b8183610e41919061120c565b905092915050565b6000808284610e5891906111b6565b905083811015610e91577f4e487b7100000000000000000000000000000000000000000000000000000000600052600160045260246000fd5b8091505092915050565b600081359050610eaa81611426565b92915050565b600081359050610ebf8161143d565b92915050565b600060208284031215610ed757600080fd5b6000610ee584828501610e9b565b91505092915050565b60008060408385031215610f0157600080fd5b6000610f0f85828601610e9b565b9250506020610f2085828601610e9b565b9150509250929050565b600080600060608486031215610f3f57600080fd5b6000610f4d86828701610e9b565b9350506020610f5e86828701610e9b565b9250506040610f6f86828701610eb0565b9150509250925092565b60008060408385031215610f8c57600080fd5b6000610f9a85828601610e9b565b9250506020610fab85828601610eb0565b9150509250929050565b610fbe81611240565b82525050565b610fcd81611252565b82525050565b6000610fde8261119a565b610fe881856111a5565b9350610ff8818560208601611288565b6110018161134b565b840191505092915050565b60006110196026836111a5565b91506110248261135c565b604082019050919050565b600061103c6020836111a5565b9150611047826113ab565b602082019050919050565b600061105f6017836111a5565b915061106a826113d4565b602082019050919050565b6000611082601b836111a5565b915061108d826113fd565b602082019050919050565b6110a18161127e565b82525050565b60006020820190506110bc6000830184610fb5565b92915050565b60006020820190506110d76000830184610fc4565b92915050565b600060208201905081810360008301526110f78184610fd3565b905092915050565b600060208201905081810360008301526111188161100c565b9050919050565b600060208201905081810360008301526111388161102f565b9050919050565b6000602082019050818103600083015261115881611052565b9050919050565b6000602082019050818103600083015261117881611075565b9050919050565b60006020820190506111946000830184611098565b92915050565b600081519050919050565b600082825260208201905092915050565b60006111c18261127e565b91506111cc8361127e565b9250827fffffffffffffffffffffffffffffffffffffffffffffffffffffffffffffffff03821115611201576112006112ed565b5b828201905092915050565b60006112178261127e565b91506112228361127e565b925082821015611235576112346112ed565b5b828203905092915050565b600061124b8261125e565b9050919050565b60008115159050919050565b600073ffffffffffffffffffffffffffffffffffffffff82169050919050565b6000819050919050565b60005b838110156112a657808201518184015260208101905061128b565b838111156112b5576000848401525b50505050565b600060028204905060018216806112d357607f821691505b602082108114156112e7576112e661131c565b5b50919050565b7f4e487b7100000000000000000000000000000000000000000000000000000000600052601160045260246000fd5b7f4e487b7100000000000000000000000000000000000000000000000000000000600052602260045260246000fd5b6000601f19601f8301169050919050565b7f4f776e61626c653a206e6577206f776e657220697320746865207a65726f206160008201527f6464726573730000000000000000000000000000000000000000000000000000602082015250565b7f4f776e61626c653a2063616c6c6572206973206e6f7420746865206f776e6572600082015250565b7f4e6f7420686176696e6720656e6f75676820746f6b656e000000000000000000600082015250565b7f4e6f7420686176696e6720656e6f75676820616c6c6f77616e63650000000000600082015250565b61142f81611240565b811461143a57600080fd5b50565b6114468161127e565b811461145157600080fd5b5056fea2646970667358221220e8d707c55d7ddf8189c783da763f77bbb43c42c3129df617c72fe0d46deb1b1364736f6c63430008030033",
  "linkReferences": {},
  "deployedLinkReferences": {}
}